{
  "_format": "hh-sol-artifact-1",
  "contractName": "NFTMarketplace",
  "sourceName": "contracts/NFTMarketplace.sol",
  "abi": [
    {
      "inputs": [],
      "stateMutability": "nonpayable",
      "type": "constructor"
    },
    {
      "inputs": [
        {
          "internalType": "address",
          "name": "sender",
          "type": "address"
        },
        {
          "internalType": "uint256",
          "name": "tokenId",
          "type": "uint256"
        },
        {
          "internalType": "address",
          "name": "owner",
          "type": "address"
        }
      ],
      "name": "ERC721IncorrectOwner",
      "type": "error"
    },
    {
      "inputs": [
        {
          "internalType": "address",
          "name": "operator",
          "type": "address"
        },
        {
          "internalType": "uint256",
          "name": "tokenId",
          "type": "uint256"
        }
      ],
      "name": "ERC721InsufficientApproval",
      "type": "error"
    },
    {
      "inputs": [
        {
          "internalType": "address",
          "name": "approver",
          "type": "address"
        }
      ],
      "name": "ERC721InvalidApprover",
      "type": "error"
    },
    {
      "inputs": [
        {
          "internalType": "address",
          "name": "operator",
          "type": "address"
        }
      ],
      "name": "ERC721InvalidOperator",
      "type": "error"
    },
    {
      "inputs": [
        {
          "internalType": "address",
          "name": "owner",
          "type": "address"
        }
      ],
      "name": "ERC721InvalidOwner",
      "type": "error"
    },
    {
      "inputs": [
        {
          "internalType": "address",
          "name": "receiver",
          "type": "address"
        }
      ],
      "name": "ERC721InvalidReceiver",
      "type": "error"
    },
    {
      "inputs": [
        {
          "internalType": "address",
          "name": "sender",
          "type": "address"
        }
      ],
      "name": "ERC721InvalidSender",
      "type": "error"
    },
    {
      "inputs": [
        {
          "internalType": "uint256",
          "name": "tokenId",
          "type": "uint256"
        }
      ],
      "name": "ERC721NonexistentToken",
      "type": "error"
    },
    {
      "anonymous": false,
      "inputs": [
        {
          "indexed": true,
          "internalType": "address",
          "name": "owner",
          "type": "address"
        },
        {
          "indexed": true,
          "internalType": "address",
          "name": "approved",
          "type": "address"
        },
        {
          "indexed": true,
          "internalType": "uint256",
          "name": "tokenId",
          "type": "uint256"
        }
      ],
      "name": "Approval",
      "type": "event"
    },
    {
      "anonymous": false,
      "inputs": [
        {
          "indexed": true,
          "internalType": "address",
          "name": "owner",
          "type": "address"
        },
        {
          "indexed": true,
          "internalType": "address",
          "name": "operator",
          "type": "address"
        },
        {
          "indexed": false,
          "internalType": "bool",
          "name": "approved",
          "type": "bool"
        }
      ],
      "name": "ApprovalForAll",
      "type": "event"
    },
    {
      "anonymous": false,
      "inputs": [
        {
          "indexed": false,
          "internalType": "uint256",
          "name": "_fromTokenId",
          "type": "uint256"
        },
        {
          "indexed": false,
          "internalType": "uint256",
          "name": "_toTokenId",
          "type": "uint256"
        }
      ],
      "name": "BatchMetadataUpdate",
      "type": "event"
    },
    {
      "anonymous": false,
      "inputs": [
        {
          "indexed": true,
          "internalType": "uint256",
          "name": "tokenId",
          "type": "uint256"
        },
        {
          "indexed": false,
          "internalType": "address",
          "name": "seller",
          "type": "address"
        },
        {
          "indexed": false,
          "internalType": "address",
          "name": "buyer",
          "type": "address"
        },
        {
          "indexed": false,
          "internalType": "uint256",
          "name": "price",
          "type": "uint256"
        },
        {
          "indexed": false,
          "internalType": "bool",
          "name": "sold",
          "type": "bool"
        }
      ],
      "name": "MarketItemCreated",
      "type": "event"
    },
    {
      "anonymous": false,
      "inputs": [
        {
          "indexed": false,
          "internalType": "uint256",
          "name": "_tokenId",
          "type": "uint256"
        }
      ],
      "name": "MetadataUpdate",
      "type": "event"
    },
    {
      "anonymous": false,
      "inputs": [
        {
          "indexed": true,
          "internalType": "address",
          "name": "from",
          "type": "address"
        },
        {
          "indexed": true,
          "internalType": "address",
          "name": "to",
          "type": "address"
        },
        {
          "indexed": true,
          "internalType": "uint256",
          "name": "tokenId",
          "type": "uint256"
        }
      ],
      "name": "Transfer",
      "type": "event"
    },
    {
      "inputs": [
        {
          "internalType": "address",
          "name": "to",
          "type": "address"
        },
        {
          "internalType": "uint256",
          "name": "tokenId",
          "type": "uint256"
        }
      ],
      "name": "approve",
      "outputs": [],
      "stateMutability": "nonpayable",
      "type": "function"
    },
    {
      "inputs": [
        {
          "internalType": "address",
          "name": "owner",
          "type": "address"
        }
      ],
      "name": "balanceOf",
      "outputs": [
        {
          "internalType": "uint256",
          "name": "",
          "type": "uint256"
        }
      ],
      "stateMutability": "view",
      "type": "function"
    },
    {
      "inputs": [
        {
          "internalType": "uint256",
          "name": "tokenId",
          "type": "uint256"
        }
      ],
      "name": "createMarketSale",
      "outputs": [],
      "stateMutability": "payable",
      "type": "function"
    },
    {
      "inputs": [
        {
          "internalType": "string",
          "name": "tokenURI",
          "type": "string"
        },
        {
          "internalType": "uint256",
          "name": "price",
          "type": "uint256"
        }
      ],
      "name": "createToken",
      "outputs": [
        {
          "internalType": "uint256",
          "name": "",
          "type": "uint256"
        }
      ],
      "stateMutability": "payable",
      "type": "function"
    },
    {
      "inputs": [],
      "name": "fetchItemsListed",
      "outputs": [
        {
          "components": [
            {
              "internalType": "uint256",
              "name": "tokenId",
              "type": "uint256"
            },
            {
              "internalType": "address payable",
              "name": "seller",
              "type": "address"
            },
            {
              "internalType": "address payable",
              "name": "owner",
              "type": "address"
            },
            {
              "internalType": "uint256",
              "name": "price",
              "type": "uint256"
            },
            {
              "internalType": "bool",
              "name": "sold",
              "type": "bool"
            }
          ],
          "internalType": "struct NFTMarketplace.MarketItem[]",
          "name": "",
          "type": "tuple[]"
        }
      ],
      "stateMutability": "view",
      "type": "function"
    },
    {
      "inputs": [],
      "name": "fetchMarketItem",
      "outputs": [
        {
          "components": [
            {
              "internalType": "uint256",
              "name": "tokenId",
              "type": "uint256"
            },
            {
              "internalType": "address payable",
              "name": "seller",
              "type": "address"
            },
            {
              "internalType": "address payable",
              "name": "owner",
              "type": "address"
            },
            {
              "internalType": "uint256",
              "name": "price",
              "type": "uint256"
            },
            {
              "internalType": "bool",
              "name": "sold",
              "type": "bool"
            }
          ],
          "internalType": "struct NFTMarketplace.MarketItem[]",
          "name": "",
          "type": "tuple[]"
        }
      ],
      "stateMutability": "view",
      "type": "function"
    },
    {
      "inputs": [],
      "name": "fetchMyNfts",
      "outputs": [
        {
          "components": [
            {
              "internalType": "uint256",
              "name": "tokenId",
              "type": "uint256"
            },
            {
              "internalType": "address payable",
              "name": "seller",
              "type": "address"
            },
            {
              "internalType": "address payable",
              "name": "owner",
              "type": "address"
            },
            {
              "internalType": "uint256",
              "name": "price",
              "type": "uint256"
            },
            {
              "internalType": "bool",
              "name": "sold",
              "type": "bool"
            }
          ],
          "internalType": "struct NFTMarketplace.MarketItem[]",
          "name": "",
          "type": "tuple[]"
        }
      ],
      "stateMutability": "view",
      "type": "function"
    },
    {
      "inputs": [
        {
          "internalType": "uint256",
          "name": "tokenId",
          "type": "uint256"
        }
      ],
      "name": "getApproved",
      "outputs": [
        {
          "internalType": "address",
          "name": "",
          "type": "address"
        }
      ],
      "stateMutability": "view",
      "type": "function"
    },
    {
      "inputs": [
        {
          "internalType": "address",
          "name": "owner",
          "type": "address"
        },
        {
          "internalType": "address",
          "name": "operator",
          "type": "address"
        }
      ],
      "name": "isApprovedForAll",
      "outputs": [
        {
          "internalType": "bool",
          "name": "",
          "type": "bool"
        }
      ],
      "stateMutability": "view",
      "type": "function"
    },
    {
      "inputs": [],
      "name": "listingPrice",
      "outputs": [
        {
          "internalType": "uint256",
          "name": "",
          "type": "uint256"
        }
      ],
      "stateMutability": "view",
      "type": "function"
    },
    {
      "inputs": [],
      "name": "name",
      "outputs": [
        {
          "internalType": "string",
          "name": "",
          "type": "string"
        }
      ],
      "stateMutability": "view",
      "type": "function"
    },
    {
      "inputs": [
        {
          "internalType": "uint256",
          "name": "tokenId",
          "type": "uint256"
        }
      ],
      "name": "ownerOf",
      "outputs": [
        {
          "internalType": "address",
          "name": "",
          "type": "address"
        }
      ],
      "stateMutability": "view",
      "type": "function"
    },
    {
      "inputs": [
        {
          "internalType": "uint256",
          "name": "tokenId",
          "type": "uint256"
        },
        {
          "internalType": "uint256",
          "name": "price",
          "type": "uint256"
        }
      ],
      "name": "resellToken",
      "outputs": [],
      "stateMutability": "payable",
      "type": "function"
    },
    {
      "inputs": [
        {
          "internalType": "address",
          "name": "from",
          "type": "address"
        },
        {
          "internalType": "address",
          "name": "to",
          "type": "address"
        },
        {
          "internalType": "uint256",
          "name": "tokenId",
          "type": "uint256"
        }
      ],
      "name": "safeTransferFrom",
      "outputs": [],
      "stateMutability": "nonpayable",
      "type": "function"
    },
    {
      "inputs": [
        {
          "internalType": "address",
          "name": "from",
          "type": "address"
        },
        {
          "internalType": "address",
          "name": "to",
          "type": "address"
        },
        {
          "internalType": "uint256",
          "name": "tokenId",
          "type": "uint256"
        },
        {
          "internalType": "bytes",
          "name": "data",
          "type": "bytes"
        }
      ],
      "name": "safeTransferFrom",
      "outputs": [],
      "stateMutability": "nonpayable",
      "type": "function"
    },
    {
      "inputs": [
        {
          "internalType": "address",
          "name": "operator",
          "type": "address"
        },
        {
          "internalType": "bool",
          "name": "approved",
          "type": "bool"
        }
      ],
      "name": "setApprovalForAll",
      "outputs": [],
      "stateMutability": "nonpayable",
      "type": "function"
    },
    {
      "inputs": [
        {
          "internalType": "bytes4",
          "name": "interfaceId",
          "type": "bytes4"
        }
      ],
      "name": "supportsInterface",
      "outputs": [
        {
          "internalType": "bool",
          "name": "",
          "type": "bool"
        }
      ],
      "stateMutability": "view",
      "type": "function"
    },
    {
      "inputs": [],
      "name": "symbol",
      "outputs": [
        {
          "internalType": "string",
          "name": "",
          "type": "string"
        }
      ],
      "stateMutability": "view",
      "type": "function"
    },
    {
      "inputs": [
        {
          "internalType": "uint256",
          "name": "tokenId",
          "type": "uint256"
        }
      ],
      "name": "tokenURI",
      "outputs": [
        {
          "internalType": "string",
          "name": "",
          "type": "string"
        }
      ],
      "stateMutability": "view",
      "type": "function"
    },
    {
      "inputs": [
        {
          "internalType": "address",
          "name": "from",
          "type": "address"
        },
        {
          "internalType": "address",
          "name": "to",
          "type": "address"
        },
        {
          "internalType": "uint256",
          "name": "tokenId",
          "type": "uint256"
        }
      ],
      "name": "transferFrom",
      "outputs": [],
      "stateMutability": "nonpayable",
      "type": "function"
    },
    {
      "inputs": [
        {
          "internalType": "uint256",
          "name": "_listingPrice",
          "type": "uint256"
        }
      ],
      "name": "updateListingPrice",
      "outputs": [],
      "stateMutability": "payable",
      "type": "function"
    }
  ],
  "bytecode": "0x6080604052650246139ca800600a553480156200001b57600080fd5b506040518060400160405280601081526020016f4d657461766572736520546f6b656e7360801b815250604051806040016040528060048152602001631351551560e21b815250816000908162000073919062000142565b50600162000082828262000142565b5050600980546001600160a01b03191633179055506200020e565b634e487b7160e01b600052604160045260246000fd5b600181811c90821680620000c857607f821691505b602082108103620000e957634e487b7160e01b600052602260045260246000fd5b50919050565b601f8211156200013d57600081815260208120601f850160051c81016020861015620001185750805b601f850160051c820191505b81811015620001395782815560010162000124565b5050505b505050565b81516001600160401b038111156200015e576200015e6200009d565b62000176816200016f8454620000b3565b84620000ef565b602080601f831160018114620001ae5760008415620001955750858301515b600019600386901b1c1916600185901b17855562000139565b600085815260208120601f198616915b82811015620001df57888601518255948401946001909101908401620001be565b5085821015620001fe5787850151600019600388901b60f8161c191681555b5050505050600190811b01905550565b611f98806200021e6000396000f3fe60806040526004361061012a5760003560e01c806372b3b620116100ab578063b88d4fde1161006f578063b88d4fde14610315578063be9af53614610335578063c78f19f914610348578063c87b56dd1461035e578063e219fc751461037e578063e985e9c51461039157600080fd5b806372b3b620146102a55780638fafd021146102b857806395d89b41146102cd578063a22cb465146102e2578063ae677aa31461030257600080fd5b806323b872dd116100f257806323b872dd1461020257806342842e0e1461022257806345f8fa80146102425780636352211e1461025757806370a082311461027757600080fd5b806301ffc9a71461012f57806306fdde0314610164578063081812fc14610186578063095ea7b3146101be578063128ae712146101e0575b600080fd5b34801561013b57600080fd5b5061014f61014a36600461193e565b6103b1565b60405190151581526020015b60405180910390f35b34801561017057600080fd5b506101796103dc565b60405161015b91906119ab565b34801561019257600080fd5b506101a66101a13660046119be565b61046e565b6040516001600160a01b03909116815260200161015b565b3480156101ca57600080fd5b506101de6101d93660046119f3565b610497565b005b3480156101ec57600080fd5b506101f56104a6565b60405161015b9190611a1d565b34801561020e57600080fd5b506101de61021d366004611a99565b610679565b34801561022e57600080fd5b506101de61023d366004611a99565b610709565b34801561024e57600080fd5b506101f5610729565b34801561026357600080fd5b506101a66102723660046119be565b6108f3565b34801561028357600080fd5b50610297610292366004611ad5565b6108fe565b60405190815260200161015b565b6102976102b3366004611b7c565b610946565b3480156102c457600080fd5b506101f5610988565b3480156102d957600080fd5b50610179610b06565b3480156102ee57600080fd5b506101de6102fd366004611bd5565b610b15565b6101de6103103660046119be565b610b20565b34801561032157600080fd5b506101de610330366004611c11565b610b98565b6101de6103433660046119be565b610baf565b34801561035457600080fd5b50610297600a5481565b34801561036a57600080fd5b506101796103793660046119be565b610d1f565b6101de61038c366004611c8d565b610e30565b34801561039d57600080fd5b5061014f6103ac366004611caf565b610f39565b60006001600160e01b03198216632483248360e11b14806103d657506103d682610f67565b92915050565b6060600080546103eb90611ce2565b80601f016020809104026020016040519081016040528092919081815260200182805461041790611ce2565b80156104645780601f1061043957610100808354040283529160200191610464565b820191906000526020600020905b81548152906001019060200180831161044757829003601f168201915b5050505050905090565b600061047982610fb7565b506000828152600460205260409020546001600160a01b03166103d6565b6104a2828233610ff0565b5050565b600754606090600080805b8381101561050b5733600b60006104c9846001611d32565b81526020810191909152604001600020600201546001600160a01b0316036104f9576104f6600184611d32565b92505b8061050381611d45565b9150506104b1565b5060008267ffffffffffffffff81111561052757610527611af0565b60405190808252806020026020018201604052801561058057816020015b6040805160a0810182526000808252602080830182905292820181905260608201819052608082015282526000199092019101816105455790505b50905060005b848110156106705733600b600061059e846001611d32565b81526020810191909152604001600020600201546001600160a01b03160361065e5760006105cd826001611d32565b6000818152600b6020908152604091829020825160a0810184528154815260018201546001600160a01b039081169382019390935260028201549092169282019290925260038201546060820152600482015460ff16151560808201528551929350909185908790811061064357610643611d5e565b6020908102919091010152610659600186611d32565b945050505b8061066881611d45565b915050610586565b50949350505050565b6001600160a01b0382166106a857604051633250574960e11b8152600060048201526024015b60405180910390fd5b60006106b5838333610ffd565b9050836001600160a01b0316816001600160a01b031614610703576040516364283d7b60e01b81526001600160a01b038086166004830152602482018490528216604482015260640161069f565b50505050565b61072483838360405180602001604052806000815250610b98565b505050565b600754606090600080805b8381101561078e5733600b600061074c846001611d32565b81526020810191909152604001600020600101546001600160a01b03160361077c57610779600184611d32565b92505b8061078681611d45565b915050610734565b5060008267ffffffffffffffff8111156107aa576107aa611af0565b60405190808252806020026020018201604052801561080357816020015b6040805160a0810182526000808252602080830182905292820181905260608201819052608082015282526000199092019101816107c85790505b50905060005b848110156106705733600b6000610821846001611d32565b81526020810191909152604001600020600101546001600160a01b0316036108e1576000610850826001611d32565b6000818152600b6020908152604091829020825160a0810184528154815260018201546001600160a01b039081169382019390935260028201549092169282019290925260038201546060820152600482015460ff1615156080820152855192935090918590879081106108c6576108c6611d5e565b60209081029190910101526108dc600186611d32565b945050505b806108eb81611d45565b915050610809565b60006103d682610fb7565b60006001600160a01b03821661092a576040516322718ad960e21b81526000600482015260240161069f565b506001600160a01b031660009081526003602052604090205490565b600060016007600082825461095b9190611d32565b909155505060075461096d33826110f6565b610977818561115b565b61098181846111ab565b9392505050565b6007546008546060919060009061099f9083611d74565b90506000808267ffffffffffffffff8111156109bd576109bd611af0565b604051908082528060200260200182016040528015610a1657816020015b6040805160a0810182526000808252602080830182905292820181905260608201819052608082015282526000199092019101816109db5790505b50905060005b848110156106705730600b6000610a34846001611d32565b81526020810191909152604001600020600201546001600160a01b031603610af4576000610a63826001611d32565b6000818152600b6020908152604091829020825160a0810184528154815260018201546001600160a01b039081169382019390935260028201549092169282019290925260038201546060820152600482015460ff161515608082015285519293509091859087908110610ad957610ad9611d5e565b6020908102919091010152610aef600186611d32565b945050505b80610afe81611d45565b915050610a1c565b6060600180546103eb90611ce2565b6104a2338383611301565b6009546001600160a01b03163314610b935760405162461bcd60e51b815260206004820152603060248201527f4f6e6c79206d61726b6574706c616365206f776e65722063616e20757064617460448201526f32903634b9ba34b73390383934b1b29760811b606482015260840161069f565b600a55565b610ba3848484610679565b610703848484846113a0565b6000818152600b6020526040902060038101546001909101546001600160a01b0316348214610c48576040805162461bcd60e51b81526020600482015260248101919091527f506c65617365207375626d6974207468652061736b696e67207072696365206960448201527f6e206f7264657220746f20636f6d706c65746520746865207075726368617365606482015260840161069f565b6000838152600b602052604081206002810180546001600160a01b0319908116331790915560048201805460ff19166001908117909155918201805490911690556008805491929091610c9c908490611d32565b90915550610cad90503033856114c9565b600954600a546040516001600160a01b039092169181156108fc0291906000818181858888f19350505050158015610ce9573d6000803e3d6000fd5b506040516001600160a01b038216903480156108fc02916000818181858888f19350505050158015610703573d6000803e3d6000fd5b6060610d2a82610fb7565b5060008281526006602052604081208054610d4490611ce2565b80601f0160208091040260200160405190810160405280929190818152602001828054610d7090611ce2565b8015610dbd5780601f10610d9257610100808354040283529160200191610dbd565b820191906000526020600020905b815481529060010190602001808311610da057829003601f168201915b505050505090506000610ddb60408051602081019091526000815290565b90508051600003610ded575092915050565b815115610e1f578082604051602001610e07929190611d87565b60405160208183030381529060405292505050919050565b610e2884611579565b949350505050565b6000828152600b60205260409020600201546001600160a01b03163314610eac5760405162461bcd60e51b815260206004820152602a60248201527f4f6e6c79206974656d206f776e65722063616e20706572666f726d20746869736044820152691037b832b930ba34b7b760b11b606482015260840161069f565b600a543414610ecd5760405162461bcd60e51b815260040161069f90611db6565b6000828152600b6020526040812060048101805460ff1916905560038101839055600180820180546001600160a01b031990811633179091556002909201805490921630179091556008805491929091610f28908490611d74565b909155506104a290503330846114c9565b6001600160a01b03918216600090815260056020908152604080832093909416825291909152205460ff1690565b60006001600160e01b031982166380ac58cd60e01b1480610f9857506001600160e01b03198216635b5e139f60e01b145b806103d657506301ffc9a760e01b6001600160e01b03198316146103d6565b6000818152600260205260408120546001600160a01b0316806103d657604051637e27328960e01b81526004810184905260240161069f565b61072483838360016115ed565b6000828152600260205260408120546001600160a01b039081169083161561102a5761102a8184866116f3565b6001600160a01b03811615611068576110476000856000806115ed565b6001600160a01b038116600090815260036020526040902080546000190190555b6001600160a01b03851615611097576001600160a01b0385166000908152600360205260409020805460010190555b60008481526002602052604080822080546001600160a01b0319166001600160a01b0389811691821790925591518793918516917fddf252ad1be2c89b69c2b068fc378daa952ba7f163c4a11628f55a4df523b3ef91a4949350505050565b6001600160a01b03821661112057604051633250574960e11b81526000600482015260240161069f565b600061112e83836000610ffd565b90506001600160a01b03811615610724576040516339e3563760e11b81526000600482015260240161069f565b60008281526006602052604090206111738282611e48565b506040518281527ff8e1a15aba9398e019f0b49df1a4fde98ee17ae345cb5f6b5e2c27f5033e8ce79060200160405180910390a15050565b600081116111fb5760405162461bcd60e51b815260206004820152601c60248201527f5072696365206d757374206265206174206c6561737420312077656900000000604482015260640161069f565b600a54341461121c5760405162461bcd60e51b815260040161069f90611db6565b6040805160a08101825283815233602080830182815230848601818152606086018881526000608088018181528b8252600b909652979097209551865591516001860180546001600160a01b03199081166001600160a01b0393841617909155925160028701805490941691161790915593516003840155516004909201805460ff1916921515929092179091556112b491846114c9565b604080513381523060208201529081018290526000606082015282907fb640004f1d14576d0c209e240cad0410e0d8c0c33a09375861fbadae2588a98d9060800160405180910390a25050565b6001600160a01b03821661133357604051630b61174360e31b81526001600160a01b038316600482015260240161069f565b6001600160a01b03838116600081815260056020908152604080832094871680845294825291829020805460ff191686151590811790915591519182527f17307eab39ab6107e8899845ad3d59bd9653f200f220920489ca2b5937696c31910160405180910390a3505050565b6001600160a01b0383163b1561070357604051630a85bd0160e11b81526001600160a01b0384169063150b7a02906113e2903390889087908790600401611f08565b6020604051808303816000875af192505050801561141d575060408051601f3d908101601f1916820190925261141a91810190611f45565b60015b611486573d80801561144b576040519150601f19603f3d011682016040523d82523d6000602084013e611450565b606091505b50805160000361147e57604051633250574960e11b81526001600160a01b038516600482015260240161069f565b805181602001fd5b6001600160e01b03198116630a85bd0160e11b146114c257604051633250574960e11b81526001600160a01b038516600482015260240161069f565b5050505050565b6001600160a01b0382166114f357604051633250574960e11b81526000600482015260240161069f565b600061150183836000610ffd565b90506001600160a01b03811661152d57604051637e27328960e01b81526004810183905260240161069f565b836001600160a01b0316816001600160a01b031614610703576040516364283d7b60e01b81526001600160a01b038086166004830152602482018490528216604482015260640161069f565b606061158482610fb7565b50600061159c60408051602081019091526000815290565b905060008151116115bc5760405180602001604052806000815250610981565b806115c684611757565b6040516020016115d7929190611d87565b6040516020818303038152906040529392505050565b808061160157506001600160a01b03821615155b156116c357600061161184610fb7565b90506001600160a01b0383161580159061163d5750826001600160a01b0316816001600160a01b031614155b8015611650575061164e8184610f39565b155b156116795760405163a9fbf51f60e01b81526001600160a01b038416600482015260240161069f565b81156116c15783856001600160a01b0316826001600160a01b03167f8c5be1e5ebec7d5bd14f71427d1e84f3dd0314c0f7b2291e5b200ac8c7c3b92560405160405180910390a45b505b5050600090815260046020526040902080546001600160a01b0319166001600160a01b0392909216919091179055565b6116fe8383836117ea565b610724576001600160a01b03831661172c57604051637e27328960e01b81526004810182905260240161069f565b60405163177e802f60e01b81526001600160a01b03831660048201526024810182905260440161069f565b606060006117648361184d565b600101905060008167ffffffffffffffff81111561178457611784611af0565b6040519080825280601f01601f1916602001820160405280156117ae576020820181803683370190505b5090508181016020015b600019016f181899199a1a9b1b9c1cb0b131b232b360811b600a86061a8153600a85049450846117b857509392505050565b60006001600160a01b03831615801590610e285750826001600160a01b0316846001600160a01b0316148061182457506118248484610f39565b80610e285750506000908152600460205260409020546001600160a01b03908116911614919050565b60008072184f03e93ff9f4daa797ed6e38ed64bf6a1f0160401b831061188c5772184f03e93ff9f4daa797ed6e38ed64bf6a1f0160401b830492506040015b6d04ee2d6d415b85acef810000000083106118b8576d04ee2d6d415b85acef8100000000830492506020015b662386f26fc1000083106118d657662386f26fc10000830492506010015b6305f5e10083106118ee576305f5e100830492506008015b612710831061190257612710830492506004015b60648310611914576064830492506002015b600a83106103d65760010192915050565b6001600160e01b03198116811461193b57600080fd5b50565b60006020828403121561195057600080fd5b813561098181611925565b60005b8381101561197657818101518382015260200161195e565b50506000910152565b6000815180845261199781602086016020860161195b565b601f01601f19169290920160200192915050565b602081526000610981602083018461197f565b6000602082840312156119d057600080fd5b5035919050565b80356001600160a01b03811681146119ee57600080fd5b919050565b60008060408385031215611a0657600080fd5b611a0f836119d7565b946020939093013593505050565b602080825282518282018190526000919060409081850190868401855b82811015611a8c57815180518552868101516001600160a01b03908116888701528682015116868601526060808201519086015260809081015115159085015260a09093019290850190600101611a3a565b5091979650505050505050565b600080600060608486031215611aae57600080fd5b611ab7846119d7565b9250611ac5602085016119d7565b9150604084013590509250925092565b600060208284031215611ae757600080fd5b610981826119d7565b634e487b7160e01b600052604160045260246000fd5b600067ffffffffffffffff80841115611b2157611b21611af0565b604051601f8501601f19908116603f01168101908282118183101715611b4957611b49611af0565b81604052809350858152868686011115611b6257600080fd5b858560208301376000602087830101525050509392505050565b60008060408385031215611b8f57600080fd5b823567ffffffffffffffff811115611ba657600080fd5b8301601f81018513611bb757600080fd5b611bc685823560208401611b06565b95602094909401359450505050565b60008060408385031215611be857600080fd5b611bf1836119d7565b915060208301358015158114611c0657600080fd5b809150509250929050565b60008060008060808587031215611c2757600080fd5b611c30856119d7565b9350611c3e602086016119d7565b925060408501359150606085013567ffffffffffffffff811115611c6157600080fd5b8501601f81018713611c7257600080fd5b611c8187823560208401611b06565b91505092959194509250565b60008060408385031215611ca057600080fd5b50508035926020909101359150565b60008060408385031215611cc257600080fd5b611ccb836119d7565b9150611cd9602084016119d7565b90509250929050565b600181811c90821680611cf657607f821691505b602082108103611d1657634e487b7160e01b600052602260045260246000fd5b50919050565b634e487b7160e01b600052601160045260246000fd5b808201808211156103d6576103d6611d1c565b600060018201611d5757611d57611d1c565b5060010190565b634e487b7160e01b600052603260045260246000fd5b818103818111156103d6576103d6611d1c565b60008351611d9981846020880161195b565b835190830190611dad81836020880161195b565b01949350505050565b60208082526024908201527f5072696365206d75737420626520657175616c20746f206c697374696e6720706040820152637269636560e01b606082015260800190565b601f82111561072457600081815260208120601f850160051c81016020861015611e215750805b601f850160051c820191505b81811015611e4057828155600101611e2d565b505050505050565b815167ffffffffffffffff811115611e6257611e62611af0565b611e7681611e708454611ce2565b84611dfa565b602080601f831160018114611eab5760008415611e935750858301515b600019600386901b1c1916600185901b178555611e40565b600085815260208120601f198616915b82811015611eda57888601518255948401946001909101908401611ebb565b5085821015611ef85787850151600019600388901b60f8161c191681555b5050505050600190811b01905550565b6001600160a01b0385811682528416602082015260408101839052608060608201819052600090611f3b9083018461197f565b9695505050505050565b600060208284031215611f5757600080fd5b81516109818161192556fea26469706673582212204bdf513c199ad273b80dba9f5e497c563e6517379c9fb54b5f29bb8680a0f4fc64736f6c63430008140033",
  "linkReferences": {},
  "deployedLinkReferences": {}
}