{
  "_format": "hh-sol-artifact-1",
  "contractName": "NFTMarketplaceUpgradeableV2",
  "sourceName": "contracts/UpgradeMarketplacev2.sol",
  "abi": [
    {
      "inputs": [
        {
          "internalType": "address",
          "name": "target",
          "type": "address"
        }
      ],
      "name": "AddressEmptyCode",
      "type": "error"
    },
    {
      "inputs": [
        {
          "internalType": "address",
          "name": "implementation",
          "type": "address"
        }
      ],
      "name": "ERC1967InvalidImplementation",
      "type": "error"
    },
    {
      "inputs": [],
      "name": "ERC1967NonPayable",
      "type": "error"
    },
    {
      "inputs": [
        {
          "internalType": "address",
          "name": "sender",
          "type": "address"
        },
        {
          "internalType": "uint256",
          "name": "tokenId",
          "type": "uint256"
        },
        {
          "internalType": "address",
          "name": "owner",
          "type": "address"
        }
      ],
      "name": "ERC721IncorrectOwner",
      "type": "error"
    },
    {
      "inputs": [
        {
          "internalType": "address",
          "name": "operator",
          "type": "address"
        },
        {
          "internalType": "uint256",
          "name": "tokenId",
          "type": "uint256"
        }
      ],
      "name": "ERC721InsufficientApproval",
      "type": "error"
    },
    {
      "inputs": [
        {
          "internalType": "address",
          "name": "approver",
          "type": "address"
        }
      ],
      "name": "ERC721InvalidApprover",
      "type": "error"
    },
    {
      "inputs": [
        {
          "internalType": "address",
          "name": "operator",
          "type": "address"
        }
      ],
      "name": "ERC721InvalidOperator",
      "type": "error"
    },
    {
      "inputs": [
        {
          "internalType": "address",
          "name": "owner",
          "type": "address"
        }
      ],
      "name": "ERC721InvalidOwner",
      "type": "error"
    },
    {
      "inputs": [
        {
          "internalType": "address",
          "name": "receiver",
          "type": "address"
        }
      ],
      "name": "ERC721InvalidReceiver",
      "type": "error"
    },
    {
      "inputs": [
        {
          "internalType": "address",
          "name": "sender",
          "type": "address"
        }
      ],
      "name": "ERC721InvalidSender",
      "type": "error"
    },
    {
      "inputs": [
        {
          "internalType": "uint256",
          "name": "tokenId",
          "type": "uint256"
        }
      ],
      "name": "ERC721NonexistentToken",
      "type": "error"
    },
    {
      "inputs": [],
      "name": "FailedInnerCall",
      "type": "error"
    },
    {
      "inputs": [],
      "name": "InvalidInitialization",
      "type": "error"
    },
    {
      "inputs": [],
      "name": "NotInitializing",
      "type": "error"
    },
    {
      "inputs": [
        {
          "internalType": "address",
          "name": "owner",
          "type": "address"
        }
      ],
      "name": "OwnableInvalidOwner",
      "type": "error"
    },
    {
      "inputs": [
        {
          "internalType": "address",
          "name": "account",
          "type": "address"
        }
      ],
      "name": "OwnableUnauthorizedAccount",
      "type": "error"
    },
    {
      "inputs": [],
      "name": "UUPSUnauthorizedCallContext",
      "type": "error"
    },
    {
      "inputs": [
        {
          "internalType": "bytes32",
          "name": "slot",
          "type": "bytes32"
        }
      ],
      "name": "UUPSUnsupportedProxiableUUID",
      "type": "error"
    },
    {
      "anonymous": false,
      "inputs": [
        {
          "indexed": true,
          "internalType": "address",
          "name": "owner",
          "type": "address"
        },
        {
          "indexed": true,
          "internalType": "address",
          "name": "approved",
          "type": "address"
        },
        {
          "indexed": true,
          "internalType": "uint256",
          "name": "tokenId",
          "type": "uint256"
        }
      ],
      "name": "Approval",
      "type": "event"
    },
    {
      "anonymous": false,
      "inputs": [
        {
          "indexed": true,
          "internalType": "address",
          "name": "owner",
          "type": "address"
        },
        {
          "indexed": true,
          "internalType": "address",
          "name": "operator",
          "type": "address"
        },
        {
          "indexed": false,
          "internalType": "bool",
          "name": "approved",
          "type": "bool"
        }
      ],
      "name": "ApprovalForAll",
      "type": "event"
    },
    {
      "anonymous": false,
      "inputs": [
        {
          "indexed": false,
          "internalType": "uint256",
          "name": "_fromTokenId",
          "type": "uint256"
        },
        {
          "indexed": false,
          "internalType": "uint256",
          "name": "_toTokenId",
          "type": "uint256"
        }
      ],
      "name": "BatchMetadataUpdate",
      "type": "event"
    },
    {
      "anonymous": false,
      "inputs": [
        {
          "indexed": false,
          "internalType": "uint64",
          "name": "version",
          "type": "uint64"
        }
      ],
      "name": "Initialized",
      "type": "event"
    },
    {
      "anonymous": false,
      "inputs": [
        {
          "indexed": true,
          "internalType": "uint256",
          "name": "tokenId",
          "type": "uint256"
        },
        {
          "indexed": false,
          "internalType": "uint256",
          "name": "price",
          "type": "uint256"
        },
        {
          "indexed": false,
          "internalType": "address",
          "name": "seller",
          "type": "address"
        },
        {
          "indexed": false,
          "internalType": "address",
          "name": "buyer",
          "type": "address"
        },
        {
          "indexed": false,
          "internalType": "bool",
          "name": "sold",
          "type": "bool"
        }
      ],
      "name": "MarketItemCreated",
      "type": "event"
    },
    {
      "anonymous": false,
      "inputs": [
        {
          "indexed": false,
          "internalType": "uint256",
          "name": "_tokenId",
          "type": "uint256"
        }
      ],
      "name": "MetadataUpdate",
      "type": "event"
    },
    {
      "anonymous": false,
      "inputs": [
        {
          "indexed": true,
          "internalType": "address",
          "name": "previousOwner",
          "type": "address"
        },
        {
          "indexed": true,
          "internalType": "address",
          "name": "newOwner",
          "type": "address"
        }
      ],
      "name": "OwnershipTransferred",
      "type": "event"
    },
    {
      "anonymous": false,
      "inputs": [
        {
          "indexed": true,
          "internalType": "address",
          "name": "from",
          "type": "address"
        },
        {
          "indexed": true,
          "internalType": "address",
          "name": "to",
          "type": "address"
        },
        {
          "indexed": true,
          "internalType": "uint256",
          "name": "tokenId",
          "type": "uint256"
        }
      ],
      "name": "Transfer",
      "type": "event"
    },
    {
      "anonymous": false,
      "inputs": [
        {
          "indexed": true,
          "internalType": "address",
          "name": "implementation",
          "type": "address"
        }
      ],
      "name": "Upgraded",
      "type": "event"
    },
    {
      "inputs": [],
      "name": "UPGRADE_INTERFACE_VERSION",
      "outputs": [
        {
          "internalType": "string",
          "name": "",
          "type": "string"
        }
      ],
      "stateMutability": "view",
      "type": "function"
    },
    {
      "inputs": [
        {
          "internalType": "address",
          "name": "to",
          "type": "address"
        },
        {
          "internalType": "uint256",
          "name": "tokenId",
          "type": "uint256"
        }
      ],
      "name": "approve",
      "outputs": [],
      "stateMutability": "nonpayable",
      "type": "function"
    },
    {
      "inputs": [
        {
          "internalType": "address",
          "name": "owner",
          "type": "address"
        }
      ],
      "name": "balanceOf",
      "outputs": [
        {
          "internalType": "uint256",
          "name": "",
          "type": "uint256"
        }
      ],
      "stateMutability": "view",
      "type": "function"
    },
    {
      "inputs": [
        {
          "internalType": "uint256",
          "name": "tokenId",
          "type": "uint256"
        }
      ],
      "name": "createMarketSale",
      "outputs": [],
      "stateMutability": "payable",
      "type": "function"
    },
    {
      "inputs": [
        {
          "internalType": "string",
          "name": "_tokenURI",
          "type": "string"
        },
        {
          "internalType": "uint256",
          "name": "price",
          "type": "uint256"
        }
      ],
      "name": "createToken",
      "outputs": [
        {
          "internalType": "uint256",
          "name": "",
          "type": "uint256"
        }
      ],
      "stateMutability": "payable",
      "type": "function"
    },
    {
      "inputs": [],
      "name": "fetchItemsListed",
      "outputs": [
        {
          "components": [
            {
              "internalType": "uint256",
              "name": "tokenId",
              "type": "uint256"
            },
            {
              "internalType": "uint256",
              "name": "price",
              "type": "uint256"
            },
            {
              "internalType": "address payable",
              "name": "seller",
              "type": "address"
            },
            {
              "internalType": "address payable",
              "name": "owner",
              "type": "address"
            },
            {
              "internalType": "bool",
              "name": "sold",
              "type": "bool"
            }
          ],
          "internalType": "struct NFTMarketplaceUpgradeableV2.MarketItem[]",
          "name": "",
          "type": "tuple[]"
        }
      ],
      "stateMutability": "view",
      "type": "function"
    },
    {
      "inputs": [],
      "name": "fetchMarketItem",
      "outputs": [
        {
          "components": [
            {
              "internalType": "uint256",
              "name": "tokenId",
              "type": "uint256"
            },
            {
              "internalType": "uint256",
              "name": "price",
              "type": "uint256"
            },
            {
              "internalType": "address payable",
              "name": "seller",
              "type": "address"
            },
            {
              "internalType": "address payable",
              "name": "owner",
              "type": "address"
            },
            {
              "internalType": "bool",
              "name": "sold",
              "type": "bool"
            }
          ],
          "internalType": "struct NFTMarketplaceUpgradeableV2.MarketItem[]",
          "name": "",
          "type": "tuple[]"
        }
      ],
      "stateMutability": "view",
      "type": "function"
    },
    {
      "inputs": [],
      "name": "fetchMyNfts",
      "outputs": [
        {
          "components": [
            {
              "internalType": "uint256",
              "name": "tokenId",
              "type": "uint256"
            },
            {
              "internalType": "uint256",
              "name": "price",
              "type": "uint256"
            },
            {
              "internalType": "address payable",
              "name": "seller",
              "type": "address"
            },
            {
              "internalType": "address payable",
              "name": "owner",
              "type": "address"
            },
            {
              "internalType": "bool",
              "name": "sold",
              "type": "bool"
            }
          ],
          "internalType": "struct NFTMarketplaceUpgradeableV2.MarketItem[]",
          "name": "",
          "type": "tuple[]"
        }
      ],
      "stateMutability": "view",
      "type": "function"
    },
    {
      "inputs": [
        {
          "internalType": "uint256",
          "name": "tokenId",
          "type": "uint256"
        }
      ],
      "name": "getApproved",
      "outputs": [
        {
          "internalType": "address",
          "name": "",
          "type": "address"
        }
      ],
      "stateMutability": "view",
      "type": "function"
    },
    {
      "inputs": [],
      "name": "initialize",
      "outputs": [],
      "stateMutability": "nonpayable",
      "type": "function"
    },
    {
      "inputs": [
        {
          "internalType": "address",
          "name": "owner",
          "type": "address"
        },
        {
          "internalType": "address",
          "name": "operator",
          "type": "address"
        }
      ],
      "name": "isApprovedForAll",
      "outputs": [
        {
          "internalType": "bool",
          "name": "",
          "type": "bool"
        }
      ],
      "stateMutability": "view",
      "type": "function"
    },
    {
      "inputs": [],
      "name": "listingPrice",
      "outputs": [
        {
          "internalType": "uint256",
          "name": "",
          "type": "uint256"
        }
      ],
      "stateMutability": "view",
      "type": "function"
    },
    {
      "inputs": [],
      "name": "name",
      "outputs": [
        {
          "internalType": "string",
          "name": "",
          "type": "string"
        }
      ],
      "stateMutability": "view",
      "type": "function"
    },
    {
      "inputs": [],
      "name": "owner",
      "outputs": [
        {
          "internalType": "address",
          "name": "",
          "type": "address"
        }
      ],
      "stateMutability": "view",
      "type": "function"
    },
    {
      "inputs": [
        {
          "internalType": "uint256",
          "name": "tokenId",
          "type": "uint256"
        }
      ],
      "name": "ownerOf",
      "outputs": [
        {
          "internalType": "address",
          "name": "",
          "type": "address"
        }
      ],
      "stateMutability": "view",
      "type": "function"
    },
    {
      "inputs": [],
      "name": "proxiableUUID",
      "outputs": [
        {
          "internalType": "bytes32",
          "name": "",
          "type": "bytes32"
        }
      ],
      "stateMutability": "view",
      "type": "function"
    },
    {
      "inputs": [],
      "name": "renounceOwnership",
      "outputs": [],
      "stateMutability": "nonpayable",
      "type": "function"
    },
    {
      "inputs": [
        {
          "internalType": "uint256",
          "name": "tokenId",
          "type": "uint256"
        },
        {
          "internalType": "uint256",
          "name": "price",
          "type": "uint256"
        }
      ],
      "name": "resellToken",
      "outputs": [],
      "stateMutability": "payable",
      "type": "function"
    },
    {
      "inputs": [
        {
          "internalType": "address",
          "name": "from",
          "type": "address"
        },
        {
          "internalType": "address",
          "name": "to",
          "type": "address"
        },
        {
          "internalType": "uint256",
          "name": "tokenId",
          "type": "uint256"
        }
      ],
      "name": "safeTransferFrom",
      "outputs": [],
      "stateMutability": "nonpayable",
      "type": "function"
    },
    {
      "inputs": [
        {
          "internalType": "address",
          "name": "from",
          "type": "address"
        },
        {
          "internalType": "address",
          "name": "to",
          "type": "address"
        },
        {
          "internalType": "uint256",
          "name": "tokenId",
          "type": "uint256"
        },
        {
          "internalType": "bytes",
          "name": "data",
          "type": "bytes"
        }
      ],
      "name": "safeTransferFrom",
      "outputs": [],
      "stateMutability": "nonpayable",
      "type": "function"
    },
    {
      "inputs": [
        {
          "internalType": "address",
          "name": "operator",
          "type": "address"
        },
        {
          "internalType": "bool",
          "name": "approved",
          "type": "bool"
        }
      ],
      "name": "setApprovalForAll",
      "outputs": [],
      "stateMutability": "nonpayable",
      "type": "function"
    },
    {
      "inputs": [
        {
          "internalType": "bytes4",
          "name": "interfaceId",
          "type": "bytes4"
        }
      ],
      "name": "supportsInterface",
      "outputs": [
        {
          "internalType": "bool",
          "name": "",
          "type": "bool"
        }
      ],
      "stateMutability": "view",
      "type": "function"
    },
    {
      "inputs": [],
      "name": "symbol",
      "outputs": [
        {
          "internalType": "string",
          "name": "",
          "type": "string"
        }
      ],
      "stateMutability": "view",
      "type": "function"
    },
    {
      "inputs": [
        {
          "internalType": "uint256",
          "name": "tokenId",
          "type": "uint256"
        }
      ],
      "name": "tokenURI",
      "outputs": [
        {
          "internalType": "string",
          "name": "",
          "type": "string"
        }
      ],
      "stateMutability": "view",
      "type": "function"
    },
    {
      "inputs": [
        {
          "internalType": "address",
          "name": "from",
          "type": "address"
        },
        {
          "internalType": "address",
          "name": "to",
          "type": "address"
        },
        {
          "internalType": "uint256",
          "name": "tokenId",
          "type": "uint256"
        }
      ],
      "name": "transferFrom",
      "outputs": [],
      "stateMutability": "nonpayable",
      "type": "function"
    },
    {
      "inputs": [
        {
          "internalType": "address",
          "name": "newOwner",
          "type": "address"
        }
      ],
      "name": "transferOwnership",
      "outputs": [],
      "stateMutability": "nonpayable",
      "type": "function"
    },
    {
      "inputs": [
        {
          "internalType": "uint256",
          "name": "_listingPrice",
          "type": "uint256"
        }
      ],
      "name": "updateListingPrice",
      "outputs": [],
      "stateMutability": "payable",
      "type": "function"
    },
    {
      "inputs": [
        {
          "internalType": "address",
          "name": "newImplementation",
          "type": "address"
        },
        {
          "internalType": "bytes",
          "name": "data",
          "type": "bytes"
        }
      ],
      "name": "upgradeToAndCall",
      "outputs": [],
      "stateMutability": "payable",
      "type": "function"
    }
  ],
  "bytecode": "0x60a06040523060805234801561001457600080fd5b50608051612a0061003e6000396000818161139f015281816113c801526115090152612a006000f3fe6080604052600436106101b75760003560e01c80638129fc1c116100ec578063b88d4fde1161008a578063c87b56dd11610064578063c87b56dd14610483578063e219fc75146104a3578063e985e9c5146104b6578063f2fde38b146104d657600080fd5b8063b88d4fde1461043a578063be9af5361461045a578063c78f19f91461046d57600080fd5b806395d89b41116100c657806395d89b41146103c1578063a22cb465146103d6578063ad3cb1cc146103f6578063ae677aa31461042757600080fd5b80638129fc1c146103825780638da5cb5b146103975780638fafd021146103ac57600080fd5b806345f8fa80116101595780636352211e116101335780636352211e1461031a57806370a082311461033a578063715018a61461035a57806372b3b6201461036f57600080fd5b806345f8fa80146102cf5780634f1ef286146102e457806352d1902d146102f757600080fd5b8063095ea7b311610195578063095ea7b31461024b578063128ae7121461026d57806323b872dd1461028f57806342842e0e146102af57600080fd5b806301ffc9a7146101bc57806306fdde03146101f1578063081812fc14610213575b600080fd5b3480156101c857600080fd5b506101dc6101d7366004612319565b6104f6565b60405190151581526020015b60405180910390f35b3480156101fd57600080fd5b50610206610507565b6040516101e89190612386565b34801561021f57600080fd5b5061023361022e366004612399565b6105ab565b6040516001600160a01b0390911681526020016101e8565b34801561025757600080fd5b5061026b6102663660046123ce565b6105c0565b005b34801561027957600080fd5b506102826105cf565b6040516101e891906123f8565b34801561029b57600080fd5b5061026b6102aa366004612476565b6107a2565b3480156102bb57600080fd5b5061026b6102ca366004612476565b610832565b3480156102db57600080fd5b50610282610852565b61026b6102f236600461255e565b610a1c565b34801561030357600080fd5b5061030c610a37565b6040519081526020016101e8565b34801561032657600080fd5b50610233610335366004612399565b610a54565b34801561034657600080fd5b5061030c6103553660046125ac565b610a5f565b34801561036657600080fd5b5061026b610abb565b61030c61037d3660046125c7565b610acf565b34801561038e57600080fd5b5061026b610b10565b3480156103a357600080fd5b50610233610c77565b3480156103b857600080fd5b50610282610ca5565b3480156103cd57600080fd5b50610206610e22565b3480156103e257600080fd5b5061026b6103f1366004612620565b610e61565b34801561040257600080fd5b50610206604051806040016040528060058152602001640352e302e360dc1b81525081565b61026b610435366004612399565b610e6c565b34801561044657600080fd5b5061026b61045536600461265c565b610e79565b61026b610468366004612399565b610e90565b34801561047957600080fd5b5061030c60025481565b34801561048f57600080fd5b5061020661049e366004612399565b61100b565b61026b6104b13660046126c4565b611016565b3480156104c257600080fd5b506101dc6104d13660046126e6565b61115b565b3480156104e257600080fd5b5061026b6104f13660046125ac565b6111a8565b6000610501826111e6565b92915050565b60008051602061298b833981519152805460609190819061052790612719565b80601f016020809104026020016040519081016040528092919081815260200182805461055390612719565b80156105a05780601f10610575576101008083540402835291602001916105a0565b820191906000526020600020905b81548152906001019060200180831161058357829003601f168201915b505050505091505090565b60006105b68261120b565b5061050182611243565b6105cb82823361127d565b5050565b6000805460609180805b838110156106335733600360006105f1846001612769565b81526020810191909152604001600020600301546001600160a01b0316036106215761061e600184612769565b92505b8061062b8161277c565b9150506105d9565b5060008267ffffffffffffffff81111561064f5761064f6124b2565b6040519080825280602002602001820160405280156106a857816020015b6040805160a08101825260008082526020808301829052928201819052606082018190526080820152825260001990920191018161066d5790505b50905060005b848110156107995733600360006106c6846001612769565b81526020810191909152604001600020600301546001600160a01b0316036107875760006106f5826001612769565b600081815260036020818152604092839020835160a0810185528154815260018201549281019290925260028101546001600160a01b0390811694830194909452918201549283166060820152600160a01b90920460ff161515608083015285519293509185908790811061076c5761076c612795565b6020908102919091010152610782600186612769565b945050505b806107918161277c565b9150506106ae565b50949350505050565b6001600160a01b0382166107d157604051633250574960e11b8152600060048201526024015b60405180910390fd5b60006107de83833361128a565b9050836001600160a01b0316816001600160a01b03161461082c576040516364283d7b60e01b81526001600160a01b03808616600483015260248201849052821660448201526064016107c8565b50505050565b61084d83838360405180602001604052806000815250610e79565b505050565b6000805460609180805b838110156108b6573360036000610874846001612769565b81526020810191909152604001600020600201546001600160a01b0316036108a4576108a1600184612769565b92505b806108ae8161277c565b91505061085c565b5060008267ffffffffffffffff8111156108d2576108d26124b2565b60405190808252806020026020018201604052801561092b57816020015b6040805160a0810182526000808252602080830182905292820181905260608201819052608082015282526000199092019101816108f05790505b50905060005b84811015610799573360036000610949846001612769565b81526020810191909152604001600020600201546001600160a01b031603610a0a576000610978826001612769565b600081815260036020818152604092839020835160a0810185528154815260018201549281019290925260028101546001600160a01b0390811694830194909452918201549283166060820152600160a01b90920460ff16151560808301528551929350918590879081106109ef576109ef612795565b6020908102919091010152610a05600186612769565b945050505b80610a148161277c565b915050610931565b610a24611394565b610a2d82611439565b6105cb8282611441565b6000610a416114fe565b506000805160206129ab83398151915290565b60006105018261120b565b600060008051602061298b8339815191526001600160a01b038316610a9a576040516322718ad960e21b8152600060048201526024016107c8565b6001600160a01b039092166000908152600390920160205250604090205490565b610ac3611547565b610acd6000611579565b565b60006001600080828254610ae39190612769565b9091555050600054610af533826115ea565b610aff8185611604565b610b098184611677565b9392505050565b7ff0c57e16840df040f15088dc2f81fe391c3923bec73e23a9662efc9c229c6a008054600160401b810460ff16159067ffffffffffffffff16600081158015610b565750825b905060008267ffffffffffffffff166001148015610b735750303b155b905081158015610b81575080155b15610b9f5760405163f92ee8a960e01b815260040160405180910390fd5b845467ffffffffffffffff191660011785558315610bc957845460ff60401b1916600160401b1785555b610c10604051806040016040528060098152602001684d657461766572736560b81b815250604051806040016040528060048152602001634d65746160e01b81525061180d565b610c193361181f565b610c21611830565b640ba43b74006002558315610c7057845460ff60401b19168555604051600181527fc7f505b2f371ae2175ee4913f4499e1f2633a7b5936321eed1cdaeb6115181d29060200160405180910390a15b5050505050565b7f9016d09d72d40fdae2fd8ceac6b6234c7706214fd39c1cd1e609a0528c199300546001600160a01b031690565b6000805460015460609290610cba90836127ab565b90506000808267ffffffffffffffff811115610cd857610cd86124b2565b604051908082528060200260200182016040528015610d3157816020015b6040805160a081018252600080825260208083018290529282018190526060820181905260808201528252600019909201910181610cf65790505b50905060005b84811015610799573060036000610d4f846001612769565b81526020810191909152604001600020600301546001600160a01b031603610e10576000610d7e826001612769565b600081815260036020818152604092839020835160a0810185528154815260018201549281019290925260028101546001600160a01b0390811694830194909452918201549283166060820152600160a01b90920460ff1615156080830152855192935091859087908110610df557610df5612795565b6020908102919091010152610e0b600186612769565b945050505b80610e1a8161277c565b915050610d37565b7f80bb2b638cc20bc4d0a60d66940f3ab4a00c1d7b313497ca82fb0b4ab0079301805460609160008051602061298b8339815191529161052790612719565b6105cb338383611838565b610e74611547565b600255565b610e848484846107a2565b61082c848484846118e9565b600081815260036020526040902060018101546002909101546001600160a01b0316348214610f29576040805162461bcd60e51b81526020600482015260248101919091527f506c65617365207375626d6974207468652061736b696e67207072696365206960448201527f6e206f7264657220746f20636f6d706c6574652074686520707572636861736560648201526084016107c8565b60008381526003602081905260408220908101805460ff60a01b1933166001600160a81b031990911617600160a01b17905560020180546001600160a01b03191690556001805490918291610f7f908390612769565b90915550610f909050303385611a0b565b6000610f9a610c77565b6002546040519192506001600160a01b0383169181156108fc0291906000818181858888f19350505050158015610fd5573d6000803e3d6000fd5b506040516001600160a01b038316903480156108fc02916000818181858888f19350505050158015610c70573d6000803e3d6000fd5b606061050182611abb565b600082815260036020819052604090912001546001600160a01b031633146110935760405162461bcd60e51b815260206004820152602a60248201527f4f6e6c79206974656d206f776e65722063616e20706572666f726d20746869736044820152691037b832b930ba34b7b760b11b60648201526084016107c8565b60025434146110f95760405162461bcd60e51b815260206004820152602c60248201527f53656e6420746865206c697374696e672070726963652077697468207468652060448201526b3a3930b739b0b1ba34b7b71760a11b60648201526084016107c8565b6000828152600360208190526040822090810180546001808401869055600290930180546001600160a01b031916331790556001600160a81b0319163017905580549091829161114a9083906127ab565b909155506105cb9050333084611a0b565b6001600160a01b0391821660009081527f80bb2b638cc20bc4d0a60d66940f3ab4a00c1d7b313497ca82fb0b4ab00793056020908152604080832093909416825291909152205460ff1690565b6111b0611547565b6001600160a01b0381166111da57604051631e4fbdf760e01b8152600060048201526024016107c8565b6111e381611579565b50565b60006001600160e01b03198216632483248360e11b1480610501575061050182611bf0565b60008061121783611c40565b90506001600160a01b03811661050157604051637e27328960e01b8152600481018490526024016107c8565b60009081527f80bb2b638cc20bc4d0a60d66940f3ab4a00c1d7b313497ca82fb0b4ab007930460205260409020546001600160a01b031690565b61084d8383836001611c7a565b600060008051602061298b833981519152816112a585611c40565b90506001600160a01b038416156112c1576112c1818587611d90565b6001600160a01b03811615611301576112de600086600080611c7a565b6001600160a01b0381166000908152600383016020526040902080546000190190555b6001600160a01b03861615611332576001600160a01b03861660009081526003830160205260409020805460010190555b600085815260028301602052604080822080546001600160a01b0319166001600160a01b038a811691821790925591518893918516917fddf252ad1be2c89b69c2b068fc378daa952ba7f163c4a11628f55a4df523b3ef91a495945050505050565b306001600160a01b037f000000000000000000000000000000000000000000000000000000000000000016148061141b57507f00000000000000000000000000000000000000000000000000000000000000006001600160a01b031661140f6000805160206129ab833981519152546001600160a01b031690565b6001600160a01b031614155b15610acd5760405163703e46dd60e11b815260040160405180910390fd5b6111e3611547565b816001600160a01b03166352d1902d6040518163ffffffff1660e01b8152600401602060405180830381865afa92505050801561149b575060408051601f3d908101601f19168201909252611498918101906127be565b60015b6114c357604051634c9c8ce360e01b81526001600160a01b03831660048201526024016107c8565b6000805160206129ab83398151915281146114f457604051632a87526960e21b8152600481018290526024016107c8565b61084d8383611df4565b306001600160a01b037f00000000000000000000000000000000000000000000000000000000000000001614610acd5760405163703e46dd60e11b815260040160405180910390fd5b33611550610c77565b6001600160a01b031614610acd5760405163118cdaa760e01b81523360048201526024016107c8565b7f9016d09d72d40fdae2fd8ceac6b6234c7706214fd39c1cd1e609a0528c19930080546001600160a01b031981166001600160a01b03848116918217845560405192169182907f8be0079c531659141344cd1fd0a4f28419497f9722a3daafe3b4186f6b6457e090600090a3505050565b6105cb828260405180602001604052806000815250611e4a565b60008281527f0542a41881ee128a365a727b282c86fa859579490b9bb45aab8503648c8e79006020819052604090912061163e8382612825565b506040518381527ff8e1a15aba9398e019f0b49df1a4fde98ee17ae345cb5f6b5e2c27f5033e8ce79060200160405180910390a1505050565b600081116116c75760405162461bcd60e51b815260206004820152601c60248201527f5072696365206d757374206265206174206c656173742031207765690000000060448201526064016107c8565b60025434146117245760405162461bcd60e51b8152602060048201526024808201527f5072696365206d75737420626520657175616c20746f206c697374696e6720706044820152637269636560e01b60648201526084016107c8565b6040805160a08101825283815260208082018481523383850181815230606086018181526000608088018181528b8252600397889052989020965187559351600187015590516002860180546001600160a01b039283166001600160a01b0319909116179055925194909301805495511515600160a01b026001600160a81b03199096169490921693909317939093179092556117c19184611a0b565b60408051828152336020820152308183015260006060820152905183917f91f5e19f3aa7a808da889a68fd2393ad4722f0c06a7d02eefa9f304b613ce9c8919081900360800190a25050565b611815611e61565b6105cb8282611eaa565b611827611e61565b6111e381611edb565b610acd611e61565b60008051602061298b8339815191526001600160a01b03831661187957604051630b61174360e31b81526001600160a01b03841660048201526024016107c8565b6001600160a01b038481166000818152600584016020908152604080832094881680845294825291829020805460ff191687151590811790915591519182527f17307eab39ab6107e8899845ad3d59bd9653f200f220920489ca2b5937696c31910160405180910390a350505050565b6001600160a01b0383163b1561082c57604051630a85bd0160e11b81526001600160a01b0384169063150b7a029061192b9033908890879087906004016128e5565b6020604051808303816000875af1925050508015611966575060408051601f3d908101601f1916820190925261196391810190612922565b60015b6119cf573d808015611994576040519150601f19603f3d011682016040523d82523d6000602084013e611999565b606091505b5080516000036119c757604051633250574960e11b81526001600160a01b03851660048201526024016107c8565b805181602001fd5b6001600160e01b03198116630a85bd0160e11b14610c7057604051633250574960e11b81526001600160a01b03851660048201526024016107c8565b6001600160a01b038216611a3557604051633250574960e11b8152600060048201526024016107c8565b6000611a438383600061128a565b90506001600160a01b038116611a6f57604051637e27328960e01b8152600481018390526024016107c8565b836001600160a01b0316816001600160a01b03161461082c576040516364283d7b60e01b81526001600160a01b03808616600483015260248201849052821660448201526064016107c8565b60607f0542a41881ee128a365a727b282c86fa859579490b9bb45aab8503648c8e7900611ae78361120b565b5060008381526020829052604081208054611b0190612719565b80601f0160208091040260200160405190810160405280929190818152602001828054611b2d90612719565b8015611b7a5780601f10611b4f57610100808354040283529160200191611b7a565b820191906000526020600020905b815481529060010190602001808311611b5d57829003601f168201915b505050505090506000611b9860408051602081019091526000815290565b90508051600003611bab57509392505050565b815115611bde578082604051602001611bc592919061293f565b6040516020818303038152906040529350505050919050565b611be785611ee3565b95945050505050565b60006001600160e01b031982166380ac58cd60e01b1480611c2157506001600160e01b03198216635b5e139f60e01b145b8061050157506301ffc9a760e01b6001600160e01b0319831614610501565b60009081527f80bb2b638cc20bc4d0a60d66940f3ab4a00c1d7b313497ca82fb0b4ab007930260205260409020546001600160a01b031690565b60008051602061298b8339815191528180611c9d57506001600160a01b03831615155b15611d5f576000611cad8561120b565b90506001600160a01b03841615801590611cd95750836001600160a01b0316816001600160a01b031614155b8015611cec5750611cea818561115b565b155b15611d155760405163a9fbf51f60e01b81526001600160a01b03851660048201526024016107c8565b8215611d5d5784866001600160a01b0316826001600160a01b03167f8c5be1e5ebec7d5bd14f71427d1e84f3dd0314c0f7b2291e5b200ac8c7c3b92560405160405180910390a45b505b600093845260040160205250506040902080546001600160a01b0319166001600160a01b0392909216919091179055565b611d9b838383611f57565b61084d576001600160a01b038316611dc957604051637e27328960e01b8152600481018290526024016107c8565b60405163177e802f60e01b81526001600160a01b0383166004820152602481018290526044016107c8565b611dfd82611fbd565b6040516001600160a01b038316907fbc7cd75a20ee27fd9adebab32041f755214dbc6bffa90cc0225b39da2e5c2d3b90600090a2805115611e425761084d8282612022565b6105cb61208f565b611e5483836120ae565b61084d60008484846118e9565b7ff0c57e16840df040f15088dc2f81fe391c3923bec73e23a9662efc9c229c6a0054600160401b900460ff16610acd57604051631afcd79f60e31b815260040160405180910390fd5b611eb2611e61565b60008051602061298b83398151915280611ecc8482612825565b506001810161082c8382612825565b6111b0611e61565b6060611eee8261120b565b506000611f0660408051602081019091526000815290565b90506000815111611f265760405180602001604052806000815250610b09565b80611f3084612113565b604051602001611f4192919061293f565b6040516020818303038152906040529392505050565b60006001600160a01b03831615801590611fb55750826001600160a01b0316846001600160a01b03161480611f915750611f91848461115b565b80611fb55750826001600160a01b0316611faa83611243565b6001600160a01b0316145b949350505050565b806001600160a01b03163b600003611ff357604051634c9c8ce360e01b81526001600160a01b03821660048201526024016107c8565b6000805160206129ab83398151915280546001600160a01b0319166001600160a01b0392909216919091179055565b6060600080846001600160a01b03168460405161203f919061296e565b600060405180830381855af49150503d806000811461207a576040519150601f19603f3d011682016040523d82523d6000602084013e61207f565b606091505b5091509150611be78583836121a6565b3415610acd5760405163b398979f60e01b815260040160405180910390fd5b6001600160a01b0382166120d857604051633250574960e11b8152600060048201526024016107c8565b60006120e68383600061128a565b90506001600160a01b0381161561084d576040516339e3563760e11b8152600060048201526024016107c8565b6060600061212083612202565b600101905060008167ffffffffffffffff811115612140576121406124b2565b6040519080825280601f01601f19166020018201604052801561216a576020820181803683370190505b5090508181016020015b600019016f181899199a1a9b1b9c1cb0b131b232b360811b600a86061a8153600a850494508461217457509392505050565b6060826121bb576121b6826122da565b610b09565b81511580156121d257506001600160a01b0384163b155b156121fb57604051639996b31560e01b81526001600160a01b03851660048201526024016107c8565b5080610b09565b60008072184f03e93ff9f4daa797ed6e38ed64bf6a1f0160401b83106122415772184f03e93ff9f4daa797ed6e38ed64bf6a1f0160401b830492506040015b6d04ee2d6d415b85acef8100000000831061226d576d04ee2d6d415b85acef8100000000830492506020015b662386f26fc10000831061228b57662386f26fc10000830492506010015b6305f5e10083106122a3576305f5e100830492506008015b61271083106122b757612710830492506004015b606483106122c9576064830492506002015b600a83106105015760010192915050565b8051156122ea5780518082602001fd5b604051630a12f52160e11b815260040160405180910390fd5b6001600160e01b0319811681146111e357600080fd5b60006020828403121561232b57600080fd5b8135610b0981612303565b60005b83811015612351578181015183820152602001612339565b50506000910152565b60008151808452612372816020860160208601612336565b601f01601f19169290920160200192915050565b602081526000610b09602083018461235a565b6000602082840312156123ab57600080fd5b5035919050565b80356001600160a01b03811681146123c957600080fd5b919050565b600080604083850312156123e157600080fd5b6123ea836123b2565b946020939093013593505050565b602080825282518282018190526000919060409081850190868401855b82811015612469578151805185528681015187860152858101516001600160a01b03908116878701526060808301519091169086015260809081015115159085015260a09093019290850190600101612415565b5091979650505050505050565b60008060006060848603121561248b57600080fd5b612494846123b2565b92506124a2602085016123b2565b9150604084013590509250925092565b634e487b7160e01b600052604160045260246000fd5b600067ffffffffffffffff808411156124e3576124e36124b2565b604051601f8501601f19908116603f0116810190828211818310171561250b5761250b6124b2565b8160405280935085815286868601111561252457600080fd5b858560208301376000602087830101525050509392505050565b600082601f83011261254f57600080fd5b610b09838335602085016124c8565b6000806040838503121561257157600080fd5b61257a836123b2565b9150602083013567ffffffffffffffff81111561259657600080fd5b6125a28582860161253e565b9150509250929050565b6000602082840312156125be57600080fd5b610b09826123b2565b600080604083850312156125da57600080fd5b823567ffffffffffffffff8111156125f157600080fd5b8301601f8101851361260257600080fd5b612611858235602084016124c8565b95602094909401359450505050565b6000806040838503121561263357600080fd5b61263c836123b2565b91506020830135801515811461265157600080fd5b809150509250929050565b6000806000806080858703121561267257600080fd5b61267b856123b2565b9350612689602086016123b2565b925060408501359150606085013567ffffffffffffffff8111156126ac57600080fd5b6126b88782880161253e565b91505092959194509250565b600080604083850312156126d757600080fd5b50508035926020909101359150565b600080604083850312156126f957600080fd5b612702836123b2565b9150612710602084016123b2565b90509250929050565b600181811c9082168061272d57607f821691505b60208210810361274d57634e487b7160e01b600052602260045260246000fd5b50919050565b634e487b7160e01b600052601160045260246000fd5b8082018082111561050157610501612753565b60006001820161278e5761278e612753565b5060010190565b634e487b7160e01b600052603260045260246000fd5b8181038181111561050157610501612753565b6000602082840312156127d057600080fd5b5051919050565b601f82111561084d57600081815260208120601f850160051c810160208610156127fe5750805b601f850160051c820191505b8181101561281d5782815560010161280a565b505050505050565b815167ffffffffffffffff81111561283f5761283f6124b2565b6128538161284d8454612719565b846127d7565b602080601f83116001811461288857600084156128705750858301515b600019600386901b1c1916600185901b17855561281d565b600085815260208120601f198616915b828110156128b757888601518255948401946001909101908401612898565b50858210156128d55787850151600019600388901b60f8161c191681555b5050505050600190811b01905550565b6001600160a01b03858116825284166020820152604081018390526080606082018190526000906129189083018461235a565b9695505050505050565b60006020828403121561293457600080fd5b8151610b0981612303565b60008351612951818460208801612336565b835190830190612965818360208801612336565b01949350505050565b60008251612980818460208701612336565b919091019291505056fe80bb2b638cc20bc4d0a60d66940f3ab4a00c1d7b313497ca82fb0b4ab0079300360894a13ba1a3210667c828492db98dca3e2076cc3735a920a3ca505d382bbca26469706673582212203065ce7fde3eded1ddedd54be3d7913d77c2a1fd2f168d16f6ebd3303b7c3ca264736f6c63430008140033",
  "linkReferences": {},
  "deployedLinkReferences": {}
}